{
  "contracts/counter.sol": {
    "Counter": {
      "abi": [
        {
          "inputs": [],
          "stateMutability": "nonpayable",
          "type": "constructor"
        },
        {
          "inputs": [],
          "name": "DecrementCounter",
          "outputs": [],
          "stateMutability": "nonpayable",
          "type": "function"
        },
        {
          "inputs": [],
          "name": "IncrementCounter",
          "outputs": [],
          "stateMutability": "nonpayable",
          "type": "function"
        },
        {
          "inputs": [],
          "name": "counter",
          "outputs": [
            {
              "internalType": "uint256",
              "name": "",
              "type": "uint256"
            }
          ],
          "stateMutability": "view",
          "type": "function"
        }
      ],
      "evm": {
        "bytecode": {
          "linkReferences": {},
          "object": "60806040526000805534801561001457600080fd5b50610279806100246000396000f3fe608060405234801561001057600080fd5b50600436106100415760003560e01c80630ffca1dd1461004657806361bc221a14610050578063986038cf1461006e575b600080fd5b61004e610078565b005b61005861008f565b6040516100659190610109565b60405180910390f35b610076610095565b005b600080815461008690610153565b91905081905550565b60005481565b60008054116100d9576040517f08c379a00000000000000000000000000000000000000000000000000000000081526004016100d0906101f9565b60405180910390fd5b60008081546100e790610219565b91905081905550565b6000819050919050565b610103816100f0565b82525050565b600060208201905061011e60008301846100fa565b92915050565b7f4e487b7100000000000000000000000000000000000000000000000000000000600052601160045260246000fd5b600061015e826100f0565b91507fffffffffffffffffffffffffffffffffffffffffffffffffffffffffffffffff82141561019157610190610124565b5b600182019050919050565b600082825260208201905092915050565b7f636f756e7465722063616e6e6f74206265206e65676174697665000000000000600082015250565b60006101e3601a8361019c565b91506101ee826101ad565b602082019050919050565b60006020820190508181036000830152610212816101d6565b9050919050565b6000610224826100f0565b9150600082141561023857610237610124565b5b60018203905091905056fea26469706673582212205cc14ef9fe3e7e6973cda36e87d5d4823dfb17175cd9457f87c3bab829eaced364736f6c63430008090033",
          "opcodes": "PUSH1 0x80 PUSH1 0x40 MSTORE PUSH1 0x0 DUP1 SSTORE CALLVALUE DUP1 ISZERO PUSH2 0x14 JUMPI PUSH1 0x0 DUP1 REVERT JUMPDEST POP PUSH2 0x279 DUP1 PUSH2 0x24 PUSH1 0x0 CODECOPY PUSH1 0x0 RETURN INVALID PUSH1 0x80 PUSH1 0x40 MSTORE CALLVALUE DUP1 ISZERO PUSH2 0x10 JUMPI PUSH1 0x0 DUP1 REVERT JUMPDEST POP PUSH1 0x4 CALLDATASIZE LT PUSH2 0x41 JUMPI PUSH1 0x0 CALLDATALOAD PUSH1 0xE0 SHR DUP1 PUSH4 0xFFCA1DD EQ PUSH2 0x46 JUMPI DUP1 PUSH4 0x61BC221A EQ PUSH2 0x50 JUMPI DUP1 PUSH4 0x986038CF EQ PUSH2 0x6E JUMPI JUMPDEST PUSH1 0x0 DUP1 REVERT JUMPDEST PUSH2 0x4E PUSH2 0x78 JUMP JUMPDEST STOP JUMPDEST PUSH2 0x58 PUSH2 0x8F JUMP JUMPDEST PUSH1 0x40 MLOAD PUSH2 0x65 SWAP2 SWAP1 PUSH2 0x109 JUMP JUMPDEST PUSH1 0x40 MLOAD DUP1 SWAP2 SUB SWAP1 RETURN JUMPDEST PUSH2 0x76 PUSH2 0x95 JUMP JUMPDEST STOP JUMPDEST PUSH1 0x0 DUP1 DUP2 SLOAD PUSH2 0x86 SWAP1 PUSH2 0x153 JUMP JUMPDEST SWAP2 SWAP1 POP DUP2 SWAP1 SSTORE POP JUMP JUMPDEST PUSH1 0x0 SLOAD DUP2 JUMP JUMPDEST PUSH1 0x0 DUP1 SLOAD GT PUSH2 0xD9 JUMPI PUSH1 0x40 MLOAD PUSH32 0x8C379A000000000000000000000000000000000000000000000000000000000 DUP2 MSTORE PUSH1 0x4 ADD PUSH2 0xD0 SWAP1 PUSH2 0x1F9 JUMP JUMPDEST PUSH1 0x40 MLOAD DUP1 SWAP2 SUB SWAP1 REVERT JUMPDEST PUSH1 0x0 DUP1 DUP2 SLOAD PUSH2 0xE7 SWAP1 PUSH2 0x219 JUMP JUMPDEST SWAP2 SWAP1 POP DUP2 SWAP1 SSTORE POP JUMP JUMPDEST PUSH1 0x0 DUP2 SWAP1 POP SWAP2 SWAP1 POP JUMP JUMPDEST PUSH2 0x103 DUP2 PUSH2 0xF0 JUMP JUMPDEST DUP3 MSTORE POP POP JUMP JUMPDEST PUSH1 0x0 PUSH1 0x20 DUP3 ADD SWAP1 POP PUSH2 0x11E PUSH1 0x0 DUP4 ADD DUP5 PUSH2 0xFA JUMP JUMPDEST SWAP3 SWAP2 POP POP JUMP JUMPDEST PUSH32 0x4E487B7100000000000000000000000000000000000000000000000000000000 PUSH1 0x0 MSTORE PUSH1 0x11 PUSH1 0x4 MSTORE PUSH1 0x24 PUSH1 0x0 REVERT JUMPDEST PUSH1 0x0 PUSH2 0x15E DUP3 PUSH2 0xF0 JUMP JUMPDEST SWAP2 POP PUSH32 0xFFFFFFFFFFFFFFFFFFFFFFFFFFFFFFFFFFFFFFFFFFFFFFFFFFFFFFFFFFFFFFFF DUP3 EQ ISZERO PUSH2 0x191 JUMPI PUSH2 0x190 PUSH2 0x124 JUMP JUMPDEST JUMPDEST PUSH1 0x1 DUP3 ADD SWAP1 POP SWAP2 SWAP1 POP JUMP JUMPDEST PUSH1 0x0 DUP3 DUP3 MSTORE PUSH1 0x20 DUP3 ADD SWAP1 POP SWAP3 SWAP2 POP POP JUMP JUMPDEST PUSH32 0x636F756E7465722063616E6E6F74206265206E65676174697665000000000000 PUSH1 0x0 DUP3 ADD MSTORE POP JUMP JUMPDEST PUSH1 0x0 PUSH2 0x1E3 PUSH1 0x1A DUP4 PUSH2 0x19C JUMP JUMPDEST SWAP2 POP PUSH2 0x1EE DUP3 PUSH2 0x1AD JUMP JUMPDEST PUSH1 0x20 DUP3 ADD SWAP1 POP SWAP2 SWAP1 POP JUMP JUMPDEST PUSH1 0x0 PUSH1 0x20 DUP3 ADD SWAP1 POP DUP2 DUP2 SUB PUSH1 0x0 DUP4 ADD MSTORE PUSH2 0x212 DUP2 PUSH2 0x1D6 JUMP JUMPDEST SWAP1 POP SWAP2 SWAP1 POP JUMP JUMPDEST PUSH1 0x0 PUSH2 0x224 DUP3 PUSH2 0xF0 JUMP JUMPDEST SWAP2 POP PUSH1 0x0 DUP3 EQ ISZERO PUSH2 0x238 JUMPI PUSH2 0x237 PUSH2 0x124 JUMP JUMPDEST JUMPDEST PUSH1 0x1 DUP3 SUB SWAP1 POP SWAP2 SWAP1 POP JUMP INVALID LOG2 PUSH5 0x6970667358 0x22 SLT KECCAK256 0x5C 0xC1 0x4E 0xF9 INVALID RETURNDATACOPY PUSH31 0x6973CDA36E87D5D4823DFB17175CD9457F87C3BAB829EACED364736F6C6343 STOP ADDMOD MULMOD STOP CALLER "
        },
        "methodIdentifiers": {
          "DecrementCounter()": "986038cf",
          "IncrementCounter()": "0ffca1dd",
          "counter()": "61bc221a"
        }
      }
    }
  }
}