{
  "_format": "hh-sol-artifact-1",
  "contractName": "Receiver",
  "sourceName": "contracts/Receiver.sol",
  "abi": [
    {
      "inputs": [
        {
          "internalType": "address",
          "name": "token_address",
          "type": "address"
        },
        {
          "internalType": "address",
          "name": "forwarder",
          "type": "address"
        }
      ],
      "stateMutability": "nonpayable",
      "type": "constructor"
    },
    {
      "inputs": [
        {
          "internalType": "address",
          "name": "_sender",
          "type": "address"
        },
        {
          "internalType": "address",
          "name": "_reciever",
          "type": "address"
        },
        {
          "internalType": "uint256",
          "name": "_amount",
          "type": "uint256"
        }
      ],
      "name": "TransferFrom",
      "outputs": [],
      "stateMutability": "nonpayable",
      "type": "function"
    },
    {
      "inputs": [
        {
          "internalType": "address",
          "name": "forwarder",
          "type": "address"
        }
      ],
      "name": "isTrustedForwarder",
      "outputs": [
        {
          "internalType": "bool",
          "name": "",
          "type": "bool"
        }
      ],
      "stateMutability": "view",
      "type": "function"
    }
  ],
  "bytecode": "0x60a060405234801561001057600080fd5b5060405161053338038061053383398181016040528101906100329190610112565b808073ffffffffffffffffffffffffffffffffffffffff1660808173ffffffffffffffffffffffffffffffffffffffff168152505050816000806101000a81548173ffffffffffffffffffffffffffffffffffffffff021916908373ffffffffffffffffffffffffffffffffffffffff1602179055505050610152565b600080fd5b600073ffffffffffffffffffffffffffffffffffffffff82169050919050565b60006100df826100b4565b9050919050565b6100ef816100d4565b81146100fa57600080fd5b50565b60008151905061010c816100e6565b92915050565b60008060408385031215610129576101286100af565b5b6000610137858286016100fd565b9250506020610148858286016100fd565b9150509250929050565b6080516103c761016c6000396000608b01526103c76000f3fe608060405234801561001057600080fd5b50600436106100365760003560e01c8063572b6c051461003b578063c0d84ce51461006b575b600080fd5b610055600480360381019061005091906101f7565b610087565b604051610062919061023f565b60405180910390f35b61008560048036038101906100809190610290565b6100df565b005b60007f000000000000000000000000000000000000000000000000000000000000000073ffffffffffffffffffffffffffffffffffffffff168273ffffffffffffffffffffffffffffffffffffffff16149050919050565b60008054906101000a900473ffffffffffffffffffffffffffffffffffffffff1673ffffffffffffffffffffffffffffffffffffffff166323b872dd8484846040518463ffffffff1660e01b815260040161013c93929190610301565b602060405180830381600087803b15801561015657600080fd5b505af115801561016a573d6000803e3d6000fd5b505050506040513d601f19601f8201168201806040525081019061018e9190610364565b50505050565b600080fd5b600073ffffffffffffffffffffffffffffffffffffffff82169050919050565b60006101c482610199565b9050919050565b6101d4816101b9565b81146101df57600080fd5b50565b6000813590506101f1816101cb565b92915050565b60006020828403121561020d5761020c610194565b5b600061021b848285016101e2565b91505092915050565b60008115159050919050565b61023981610224565b82525050565b60006020820190506102546000830184610230565b92915050565b6000819050919050565b61026d8161025a565b811461027857600080fd5b50565b60008135905061028a81610264565b92915050565b6000806000606084860312156102a9576102a8610194565b5b60006102b7868287016101e2565b93505060206102c8868287016101e2565b92505060406102d98682870161027b565b9150509250925092565b6102ec816101b9565b82525050565b6102fb8161025a565b82525050565b600060608201905061031660008301866102e3565b61032360208301856102e3565b61033060408301846102f2565b949350505050565b61034181610224565b811461034c57600080fd5b50565b60008151905061035e81610338565b92915050565b60006020828403121561037a57610379610194565b5b60006103888482850161034f565b9150509291505056fea26469706673582212206b7bed98df2ad8cdc9ff4eda6dad34fb858ad91fd080099c6715c7a7f7651ffd64736f6c63430008090033",
  "linkReferences": {},
  "deployedLinkReferences": {}
}