{
  "_format": "hh-sol-artifact-1",
  "contractName": "Counter",
  "sourceName": "contracts/counter.sol",
  "abi": [
    {
      "inputs": [],
      "stateMutability": "nonpayable",
      "type": "constructor"
    },
    {
      "inputs": [],
      "name": "DecrementCounter",
      "outputs": [],
      "stateMutability": "nonpayable",
      "type": "function"
    },
    {
      "inputs": [],
      "name": "IncrementCounter",
      "outputs": [],
      "stateMutability": "nonpayable",
      "type": "function"
    },
    {
      "inputs": [],
      "name": "counter",
      "outputs": [
        {
          "internalType": "uint256",
          "name": "",
          "type": "uint256"
        }
      ],
      "stateMutability": "view",
      "type": "function"
    }
  ],
  "bytecode": "0x60806040526000805534801561001457600080fd5b50610279806100246000396000f3fe608060405234801561001057600080fd5b50600436106100415760003560e01c80630ffca1dd1461004657806361bc221a14610050578063986038cf1461006e575b600080fd5b61004e610078565b005b61005861008f565b6040516100659190610109565b60405180910390f35b610076610095565b005b600080815461008690610153565b91905081905550565b60005481565b60008054116100d9576040517f08c379a00000000000000000000000000000000000000000000000000000000081526004016100d0906101f9565b60405180910390fd5b60008081546100e790610219565b91905081905550565b6000819050919050565b610103816100f0565b82525050565b600060208201905061011e60008301846100fa565b92915050565b7f4e487b7100000000000000000000000000000000000000000000000000000000600052601160045260246000fd5b600061015e826100f0565b91507fffffffffffffffffffffffffffffffffffffffffffffffffffffffffffffffff82141561019157610190610124565b5b600182019050919050565b600082825260208201905092915050565b7f636f756e7465722063616e6e6f74206265206e65676174697665000000000000600082015250565b60006101e3601a8361019c565b91506101ee826101ad565b602082019050919050565b60006020820190508181036000830152610212816101d6565b9050919050565b6000610224826100f0565b9150600082141561023857610237610124565b5b60018203905091905056fea26469706673582212205cc14ef9fe3e7e6973cda36e87d5d4823dfb17175cd9457f87c3bab829eaced364736f6c63430008090033",
  "linkReferences": {},
  "deployedLinkReferences": {}
}